{
  "contractName": "LivretFamille",
  "abi": [
    {
      "inputs": [
        {
          "internalType": "string",
          "name": "_nom",
          "type": "string"
        }
      ],
      "stateMutability": "nonpayable",
      "type": "constructor"
    },
    {
      "anonymous": false,
      "inputs": [
        {
          "indexed": true,
          "internalType": "address",
          "name": "_from",
          "type": "address"
        },
        {
          "components": [
            {
              "internalType": "string",
              "name": "prenom",
              "type": "string"
            },
            {
              "internalType": "string",
              "name": "date_naissance",
              "type": "string"
            },
            {
              "internalType": "enum Role",
              "name": "role",
              "type": "uint8"
            }
          ],
          "indexed": false,
          "internalType": "struct Personne",
          "name": "_value",
          "type": "tuple"
        }
      ],
      "name": "addMemberEvent",
      "type": "event"
    },
    {
      "anonymous": false,
      "inputs": [
        {
          "indexed": true,
          "internalType": "address",
          "name": "_from",
          "type": "address"
        },
        {
          "components": [
            {
              "internalType": "string",
              "name": "prenom",
              "type": "string"
            },
            {
              "internalType": "string",
              "name": "date_naissance",
              "type": "string"
            },
            {
              "internalType": "enum Role",
              "name": "role",
              "type": "uint8"
            }
          ],
          "indexed": false,
          "internalType": "struct Personne",
          "name": "_value",
          "type": "tuple"
        }
      ],
      "name": "deleteMemberEvent",
      "type": "event"
    },
    {
      "inputs": [
        {
          "internalType": "uint256",
          "name": "",
          "type": "uint256"
        }
      ],
      "name": "membres",
      "outputs": [
        {
          "internalType": "string",
          "name": "prenom",
          "type": "string"
        },
        {
          "internalType": "string",
          "name": "date_naissance",
          "type": "string"
        },
        {
          "internalType": "enum Role",
          "name": "role",
          "type": "uint8"
        }
      ],
      "stateMutability": "view",
      "type": "function",
      "constant": true
    },
    {
      "inputs": [
        {
          "internalType": "string",
          "name": "",
          "type": "string"
        }
      ],
      "name": "membresByPrenom",
      "outputs": [
        {
          "internalType": "string",
          "name": "prenom",
          "type": "string"
        },
        {
          "internalType": "string",
          "name": "date_naissance",
          "type": "string"
        },
        {
          "internalType": "enum Role",
          "name": "role",
          "type": "uint8"
        }
      ],
      "stateMutability": "view",
      "type": "function",
      "constant": true
    },
    {
      "inputs": [],
      "name": "nom",
      "outputs": [
        {
          "internalType": "string",
          "name": "",
          "type": "string"
        }
      ],
      "stateMutability": "view",
      "type": "function",
      "constant": true
    },
    {
      "inputs": [
        {
          "internalType": "string",
          "name": "prenom",
          "type": "string"
        },
        {
          "internalType": "string",
          "name": "date_naissance",
          "type": "string"
        },
        {
          "internalType": "enum Role",
          "name": "role",
          "type": "uint8"
        }
      ],
      "name": "addMember",
      "outputs": [],
      "stateMutability": "nonpayable",
      "type": "function"
    },
    {
      "inputs": [
        {
          "internalType": "uint256",
          "name": "index",
          "type": "uint256"
        }
      ],
      "name": "deleteMember",
      "outputs": [],
      "stateMutability": "nonpayable",
      "type": "function"
    },
    {
      "inputs": [],
      "name": "getMembers",
      "outputs": [
        {
          "components": [
            {
              "internalType": "string",
              "name": "prenom",
              "type": "string"
            },
            {
              "internalType": "string",
              "name": "date_naissance",
              "type": "string"
            },
            {
              "internalType": "enum Role",
              "name": "role",
              "type": "uint8"
            }
          ],
          "internalType": "struct Personne[]",
          "name": "",
          "type": "tuple[]"
        }
      ],
      "stateMutability": "view",
      "type": "function",
      "constant": true
    },
    {
      "inputs": [
        {
          "internalType": "string",
          "name": "prenom",
          "type": "string"
        }
      ],
      "name": "getMemberByPrenom",
      "outputs": [
        {
          "components": [
            {
              "internalType": "string",
              "name": "prenom",
              "type": "string"
            },
            {
              "internalType": "string",
              "name": "date_naissance",
              "type": "string"
            },
            {
              "internalType": "enum Role",
              "name": "role",
              "type": "uint8"
            }
          ],
          "internalType": "struct Personne",
          "name": "",
          "type": "tuple"
        }
      ],
      "stateMutability": "view",
      "type": "function",
      "constant": true
    }
  ],
  "bytecode": "0x608060405234801562000010575f80fd5b5060405162001d6b38038062001d6b8339818101604052810190620000369190620001d3565b805f908162000046919062000459565b50506200053d565b5f604051905090565b5f80fd5b5f80fd5b5f80fd5b5f80fd5b5f601f19601f8301169050919050565b7f4e487b71000000000000000000000000000000000000000000000000000000005f52604160045260245ffd5b620000af8262000067565b810181811067ffffffffffffffff82111715620000d157620000d062000077565b5b80604052505050565b5f620000e56200004e565b9050620000f38282620000a4565b919050565b5f67ffffffffffffffff82111562000115576200011462000077565b5b620001208262000067565b9050602081019050919050565b5f5b838110156200014c5780820151818401526020810190506200012f565b5f8484015250505050565b5f6200016d6200016784620000f8565b620000da565b9050828152602081018484840111156200018c576200018b62000063565b5b620001998482856200012d565b509392505050565b5f82601f830112620001b857620001b76200005f565b5b8151620001ca84826020860162000157565b91505092915050565b5f60208284031215620001eb57620001ea62000057565b5b5f82015167ffffffffffffffff8111156200020b576200020a6200005b565b5b6200021984828501620001a1565b91505092915050565b5f81519050919050565b7f4e487b71000000000000000000000000000000000000000000000000000000005f52602260045260245ffd5b5f60028204905060018216806200027157607f821691505b6020821081036200028757620002866200022c565b5b50919050565b5f819050815f5260205f209050919050565b5f6020601f8301049050919050565b5f82821b905092915050565b5f60088302620002eb7fffffffffffffffffffffffffffffffffffffffffffffffffffffffffffffffff82620002ae565b620002f78683620002ae565b95508019841693508086168417925050509392505050565b5f819050919050565b5f819050919050565b5f620003416200033b62000335846200030f565b62000318565b6200030f565b9050919050565b5f819050919050565b6200035c8362000321565b620003746200036b8262000348565b848454620002ba565b825550505050565b5f90565b6200038a6200037c565b6200039781848462000351565b505050565b5b81811015620003be57620003b25f8262000380565b6001810190506200039d565b5050565b601f8211156200040d57620003d7816200028d565b620003e2846200029f565b81016020851015620003f2578190505b6200040a62000401856200029f565b8301826200039c565b50505b505050565b5f82821c905092915050565b5f6200042f5f198460080262000412565b1980831691505092915050565b5f6200044983836200041e565b9150826002028217905092915050565b620004648262000222565b67ffffffffffffffff81111562000480576200047f62000077565b5b6200048c825462000259565b62000499828285620003c2565b5f60209050601f831160018114620004cf575f8415620004ba578287015190505b620004c685826200043c565b86555062000535565b601f198416620004df866200028d565b5f5b828110156200050857848901518255600182019150602085019450602081019050620004e1565b8683101562000528578489015162000524601f8916826200041e565b8355505b6001600288020188555050505b505050505050565b611820806200054b5f395ff3fe608060405234801561000f575f80fd5b506004361061007b575f3560e01c80639eab5253116100595780639eab5253146100e9578063afd9310114610107578063c23bbf8014610137578063cceae561146101695761007b565b806347d19db31461007f57806388bec9da146100b15780639237dd5e146100cd575b5f80fd5b61009960048036038101906100949190610dac565b610187565b6040516100a893929190610ed4565b60405180910390f35b6100cb60048036038101906100c69190610dac565b6102d4565b005b6100e760048036038101906100e29190610f9b565b6105a7565b005b6100f16107b4565b6040516100fe9190611192565b60405180910390f35b610121600480360381019061011c91906111b2565b610969565b60405161012e9190611251565b60405180910390f35b610151600480360381019061014c9190611399565b610afd565b60405161016093929190610ed4565b60405180910390f35b610171610c53565b60405161017e91906113e0565b60405180910390f35b60018181548110610196575f80fd5b905f5260205f2090600302015f91509050805f0180546101b59061142d565b80601f01602080910402602001604051908101604052809291908181526020018280546101e19061142d565b801561022c5780601f106102035761010080835404028352916020019161022c565b820191905f5260205f20905b81548152906001019060200180831161020f57829003601f168201915b5050505050908060010180546102419061142d565b80601f016020809104026020016040519081016040528092919081815260200182805461026d9061142d565b80156102b85780601f1061028f576101008083540402835291602001916102b8565b820191905f5260205f20905b81548152906001019060200180831161029b57829003601f168201915b505050505090806002015f9054906101000a900460ff16905083565b80600180549050811061031c576040517f08c379a0000000000000000000000000000000000000000000000000000000008152600401610313906114a7565b60405180910390fd5b5f60018381548110610331576103306114c5565b5b905f5260205f2090600302016040518060600160405290815f820180546103579061142d565b80601f01602080910402602001604051908101604052809291908181526020018280546103839061142d565b80156103ce5780601f106103a5576101008083540402835291602001916103ce565b820191905f5260205f20905b8154815290600101906020018083116103b157829003601f168201915b505050505081526020016001820180546103e79061142d565b80601f01602080910402602001604051908101604052809291908181526020018280546104139061142d565b801561045e5780601f106104355761010080835404028352916020019161045e565b820191905f5260205f20905b81548152906001019060200180831161044157829003601f168201915b50505050508152602001600282015f9054906101000a900460ff16600281111561048b5761048a610e61565b5b600281111561049d5761049c610e61565b5b8152505090503373ffffffffffffffffffffffffffffffffffffffff167fe022f9ef08486ba3556e73967c1bdb88254c633badc074d2664df191aa2e0c70826040516104e99190611251565b60405180910390a26002815f0151604051610504919061152c565b90815260200160405180910390205f8082015f6105219190610cde565b600182015f6105309190610cde565b600282015f6101000a81549060ff0219169055505060018381548110610559576105586114c5565b5b905f5260205f2090600302015f8082015f6105749190610cde565b600182015f6105839190610cde565b600282015f6101000a81549060ff021916905550506105a0610d1b565b9050505050565b5f604051806060016040528087878080601f0160208091040260200160405190810160405280939291908181526020018383808284375f81840152601f19601f82011690508083019250505050505050815260200185858080601f0160208091040260200160405190810160405280939291908181526020018383808284375f81840152601f19601f82011690508083019250505050505050815260200183600281111561065857610657610e61565b5b8152509050600181908060018154018082558091505060019003905f5260205f2090600302015f909190919091505f820151815f01908161069991906116df565b5060208201518160010190816106af91906116df565b506040820151816002015f6101000a81548160ff021916908360028111156106da576106d9610e61565b5b0217905550505080600287876040516106f49291906117d2565b90815260200160405180910390205f820151815f01908161071591906116df565b50602082015181600101908161072b91906116df565b506040820151816002015f6101000a81548160ff0219169083600281111561075657610755610e61565b5b02179055509050503373ffffffffffffffffffffffffffffffffffffffff167ffc203f10711712951b9fd3004d66b02b5181b5dbaad72181cb0588c1b59f83c8826040516107a49190611251565b60405180910390a2505050505050565b60606001805480602002602001604051908101604052809291908181526020015f905b82821015610960578382905f5260205f2090600302016040518060600160405290815f820180546108079061142d565b80601f01602080910402602001604051908101604052809291908181526020018280546108339061142d565b801561087e5780601f106108555761010080835404028352916020019161087e565b820191905f5260205f20905b81548152906001019060200180831161086157829003601f168201915b505050505081526020016001820180546108979061142d565b80601f01602080910402602001604051908101604052809291908181526020018280546108c39061142d565b801561090e5780601f106108e55761010080835404028352916020019161090e565b820191905f5260205f20905b8154815290600101906020018083116108f157829003601f168201915b50505050508152602001600282015f9054906101000a900460ff16600281111561093b5761093a610e61565b5b600281111561094d5761094c610e61565b5b81525050815260200190600101906107d7565b50505050905090565b610971610d1b565b600283836040516109839291906117d2565b90815260200160405180910390206040518060600160405290815f820180546109ab9061142d565b80601f01602080910402602001604051908101604052809291908181526020018280546109d79061142d565b8015610a225780601f106109f957610100808354040283529160200191610a22565b820191905f5260205f20905b815481529060010190602001808311610a0557829003601f168201915b50505050508152602001600182018054610a3b9061142d565b80601f0160208091040260200160405190810160405280929190818152602001828054610a679061142d565b8015610ab25780601f10610a8957610100808354040283529160200191610ab2565b820191905f5260205f20905b815481529060010190602001808311610a9557829003601f168201915b50505050508152602001600282015f9054906101000a900460ff166002811115610adf57610ade610e61565b5b6002811115610af157610af0610e61565b5b81525050905092915050565b6002818051602081018201805184825260208301602085012081835280955050505050505f91509050805f018054610b349061142d565b80601f0160208091040260200160405190810160405280929190818152602001828054610b609061142d565b8015610bab5780601f10610b8257610100808354040283529160200191610bab565b820191905f5260205f20905b815481529060010190602001808311610b8e57829003601f168201915b505050505090806001018054610bc09061142d565b80601f0160208091040260200160405190810160405280929190818152602001828054610bec9061142d565b8015610c375780601f10610c0e57610100808354040283529160200191610c37565b820191905f5260205f20905b815481529060010190602001808311610c1a57829003601f168201915b505050505090806002015f9054906101000a900460ff16905083565b5f8054610c5f9061142d565b80601f0160208091040260200160405190810160405280929190818152602001828054610c8b9061142d565b8015610cd65780601f10610cad57610100808354040283529160200191610cd6565b820191905f5260205f20905b815481529060010190602001808311610cb957829003601f168201915b505050505081565b508054610cea9061142d565b5f825580601f10610cfb5750610d18565b601f0160209004905f5260205f2090810190610d179190610d4d565b5b50565b604051806060016040528060608152602001606081526020015f6002811115610d4757610d46610e61565b5b81525090565b5b80821115610d64575f815f905550600101610d4e565b5090565b5f604051905090565b5f80fd5b5f80fd5b5f819050919050565b610d8b81610d79565b8114610d95575f80fd5b50565b5f81359050610da681610d82565b92915050565b5f60208284031215610dc157610dc0610d71565b5b5f610dce84828501610d98565b91505092915050565b5f81519050919050565b5f82825260208201905092915050565b5f5b83811015610e0e578082015181840152602081019050610df3565b5f8484015250505050565b5f601f19601f8301169050919050565b5f610e3382610dd7565b610e3d8185610de1565b9350610e4d818560208601610df1565b610e5681610e19565b840191505092915050565b7f4e487b71000000000000000000000000000000000000000000000000000000005f52602160045260245ffd5b60038110610e9f57610e9e610e61565b5b50565b5f819050610eaf82610e8e565b919050565b5f610ebe82610ea2565b9050919050565b610ece81610eb4565b82525050565b5f6060820190508181035f830152610eec8186610e29565b90508181036020830152610f008185610e29565b9050610f0f6040830184610ec5565b949350505050565b5f80fd5b5f80fd5b5f80fd5b5f8083601f840112610f3857610f37610f17565b5b8235905067ffffffffffffffff811115610f5557610f54610f1b565b5b602083019150836001820283011115610f7157610f70610f1f565b5b9250929050565b60038110610f84575f80fd5b50565b5f81359050610f9581610f78565b92915050565b5f805f805f60608688031215610fb457610fb3610d71565b5b5f86013567ffffffffffffffff811115610fd157610fd0610d75565b5b610fdd88828901610f23565b9550955050602086013567ffffffffffffffff81111561100057610fff610d75565b5b61100c88828901610f23565b9350935050604061101f88828901610f87565b9150509295509295909350565b5f81519050919050565b5f82825260208201905092915050565b5f819050602082019050919050565b5f82825260208201905092915050565b5f61106f82610dd7565b6110798185611055565b9350611089818560208601610df1565b61109281610e19565b840191505092915050565b6110a681610eb4565b82525050565b5f606083015f8301518482035f8601526110c68282611065565b915050602083015184820360208601526110e08282611065565b91505060408301516110f5604086018261109d565b508091505092915050565b5f61110b83836110ac565b905092915050565b5f602082019050919050565b5f6111298261102c565b6111338185611036565b93508360208202850161114585611046565b805f5b8581101561118057848403895281516111618582611100565b945061116c83611113565b925060208a01995050600181019050611148565b50829750879550505050505092915050565b5f6020820190508181035f8301526111aa818461111f565b905092915050565b5f80602083850312156111c8576111c7610d71565b5b5f83013567ffffffffffffffff8111156111e5576111e4610d75565b5b6111f185828601610f23565b92509250509250929050565b5f606083015f8301518482035f8601526112178282611065565b915050602083015184820360208601526112318282611065565b9150506040830151611246604086018261109d565b508091505092915050565b5f6020820190508181035f83015261126981846111fd565b905092915050565b5f80fd5b7f4e487b71000000000000000000000000000000000000000000000000000000005f52604160045260245ffd5b6112ab82610e19565b810181811067ffffffffffffffff821117156112ca576112c9611275565b5b80604052505050565b5f6112dc610d68565b90506112e882826112a2565b919050565b5f67ffffffffffffffff82111561130757611306611275565b5b61131082610e19565b9050602081019050919050565b828183375f83830152505050565b5f61133d611338846112ed565b6112d3565b90508281526020810184848401111561135957611358611271565b5b61136484828561131d565b509392505050565b5f82601f8301126113805761137f610f17565b5b813561139084826020860161132b565b91505092915050565b5f602082840312156113ae576113ad610d71565b5b5f82013567ffffffffffffffff8111156113cb576113ca610d75565b5b6113d78482850161136c565b91505092915050565b5f6020820190508181035f8301526113f88184610e29565b905092915050565b7f4e487b71000000000000000000000000000000000000000000000000000000005f52602260045260245ffd5b5f600282049050600182168061144457607f821691505b60208210810361145757611456611400565b5b50919050565b7f496e646578206f7574206f6620626f756e6473000000000000000000000000005f82015250565b5f611491601383610de1565b915061149c8261145d565b602082019050919050565b5f6020820190508181035f8301526114be81611485565b9050919050565b7f4e487b71000000000000000000000000000000000000000000000000000000005f52603260045260245ffd5b5f81905092915050565b5f61150682610dd7565b61151081856114f2565b9350611520818560208601610df1565b80840191505092915050565b5f61153782846114fc565b915081905092915050565b5f819050815f5260205f209050919050565b5f6020601f8301049050919050565b5f82821b905092915050565b5f6008830261159e7fffffffffffffffffffffffffffffffffffffffffffffffffffffffffffffffff82611563565b6115a88683611563565b95508019841693508086168417925050509392505050565b5f819050919050565b5f6115e36115de6115d984610d79565b6115c0565b610d79565b9050919050565b5f819050919050565b6115fc836115c9565b611610611608826115ea565b84845461156f565b825550505050565b5f90565b611624611618565b61162f8184846115f3565b505050565b5b81811015611652576116475f8261161c565b600181019050611635565b5050565b601f8211156116975761166881611542565b61167184611554565b81016020851015611680578190505b61169461168c85611554565b830182611634565b50505b505050565b5f82821c905092915050565b5f6116b75f198460080261169c565b1980831691505092915050565b5f6116cf83836116a8565b9150826002028217905092915050565b6116e882610dd7565b67ffffffffffffffff81111561170157611700611275565b5b61170b825461142d565b611716828285611656565b5f60209050601f831160018114611747575f8415611735578287015190505b61173f85826116c4565b8655506117a6565b601f19841661175586611542565b5f5b8281101561177c57848901518255600182019150602085019450602081019050611757565b868310156117995784890151611795601f8916826116a8565b8355505b6001600288020188555050505b505050505050565b5f6117b983856114f2565b93506117c683858461131d565b82840190509392505050565b5f6117de8284866117ae565b9150819050939250505056fea264697066735822122095fadd272776a3f790a322d183e2ef17d1724a79dd5317c7f1c3ea4ef8bdf23364736f6c63430008150033",
  "immutableReferences": {},
  "source": "// SPDX-License-Identifier: MIT\n\npragma solidity ^0.8.21;\n\nenum Role {\n    Parent1,\n    Parent2,\n    Enfant\n}\n\nstruct Personne {\n    string prenom;\n    string date_naissance;\n    Role role;\n}\n\ncontract LivretFamille {\n    string public nom;\n    Personne[] public membres;\n    mapping(string => Personne) public membresByPrenom;\n\n    constructor(string memory _nom) {\n        nom = _nom;\n    }\n\n    event addMemberEvent(address indexed _from, Personne _value);\n    event deleteMemberEvent(address indexed _from, Personne _value);\n\n    function addMember(\n        string calldata prenom,\n        string calldata date_naissance,\n        Role role\n    ) public {\n        Personne memory personne = Personne(prenom, date_naissance, role);\n        membres.push(personne);\n        membresByPrenom[prenom] = personne;\n        emit addMemberEvent(msg.sender, personne);\n    }\n\n    modifier existMember(uint index) {\n        require(index < membres.length, \"Index out of bounds\");\n        _;\n    }\n\n    function deleteMember(uint index) public existMember(index) {\n        Personne memory personne = membres[index];\n        emit deleteMemberEvent(msg.sender, personne);\n        delete membresByPrenom[personne.prenom];\n        delete membres[index];\n        delete personne;\n    }\n\n    function getMembers() public view returns (Personne[] memory) {\n        return membres;\n    }\n\n    function getMemberByPrenom(\n        string calldata prenom\n    ) public view returns (Personne memory) {\n        return membresByPrenom[prenom];\n    }\n}\n",
  "sourcePath": "/home/clement/Documents/cours/blockchain/truffle-livret-famille/truffle/contracts/LivretFamille.sol",
  "compiler": {
    "name": "solc",
    "version": "0.8.21+commit.d9974bed.Emscripten.clang"
  },
  "schemaVersion": "3.4.16",
  "updatedAt": "2023-11-07T13:55:28.544Z",
  "networkType": "ethereum",
  "devdoc": {
    "kind": "dev",
    "methods": {},
    "version": 1
  },
  "userdoc": {
    "kind": "user",
    "methods": {},
    "version": 1
  }
}