{
  "contractName": "LivretFamille",
  "abi": [
    {
      "inputs": [
        {
          "internalType": "string",
          "name": "_nom",
          "type": "string"
        }
      ],
      "stateMutability": "nonpayable",
      "type": "constructor"
    },
    {
      "inputs": [
        {
          "internalType": "uint256",
          "name": "",
          "type": "uint256"
        }
      ],
      "name": "membres",
      "outputs": [
        {
          "internalType": "string",
          "name": "prenom",
          "type": "string"
        },
        {
          "internalType": "string",
          "name": "date_naissance",
          "type": "string"
        },
        {
          "internalType": "enum Role",
          "name": "role",
          "type": "uint8"
        }
      ],
      "stateMutability": "view",
      "type": "function",
      "constant": true
    },
    {
      "inputs": [],
      "name": "nom",
      "outputs": [
        {
          "internalType": "string",
          "name": "",
          "type": "string"
        }
      ],
      "stateMutability": "view",
      "type": "function",
      "constant": true
    },
    {
      "inputs": [
        {
          "internalType": "string",
          "name": "prenom",
          "type": "string"
        },
        {
          "internalType": "string",
          "name": "date_naissance",
          "type": "string"
        },
        {
          "internalType": "enum Role",
          "name": "role",
          "type": "uint8"
        }
      ],
      "name": "addMember",
      "outputs": [],
      "stateMutability": "nonpayable",
      "type": "function"
    },
    {
      "inputs": [
        {
          "internalType": "uint256",
          "name": "index",
          "type": "uint256"
        }
      ],
      "name": "deleteMember",
      "outputs": [],
      "stateMutability": "nonpayable",
      "type": "function"
    },
    {
      "inputs": [],
      "name": "getMembers",
      "outputs": [
        {
          "components": [
            {
              "internalType": "string",
              "name": "prenom",
              "type": "string"
            },
            {
              "internalType": "string",
              "name": "date_naissance",
              "type": "string"
            },
            {
              "internalType": "enum Role",
              "name": "role",
              "type": "uint8"
            }
          ],
          "internalType": "struct Personne[]",
          "name": "",
          "type": "tuple[]"
        }
      ],
      "stateMutability": "view",
      "type": "function",
      "constant": true
    }
  ],
  "bytecode": "0x608060405234801562000010575f80fd5b5060405162001441380380620014418339818101604052810190620000369190620001d3565b805f908162000046919062000459565b50506200053d565b5f604051905090565b5f80fd5b5f80fd5b5f80fd5b5f80fd5b5f601f19601f8301169050919050565b7f4e487b71000000000000000000000000000000000000000000000000000000005f52604160045260245ffd5b620000af8262000067565b810181811067ffffffffffffffff82111715620000d157620000d062000077565b5b80604052505050565b5f620000e56200004e565b9050620000f38282620000a4565b919050565b5f67ffffffffffffffff82111562000115576200011462000077565b5b620001208262000067565b9050602081019050919050565b5f5b838110156200014c5780820151818401526020810190506200012f565b5f8484015250505050565b5f6200016d6200016784620000f8565b620000da565b9050828152602081018484840111156200018c576200018b62000063565b5b620001998482856200012d565b509392505050565b5f82601f830112620001b857620001b76200005f565b5b8151620001ca84826020860162000157565b91505092915050565b5f60208284031215620001eb57620001ea62000057565b5b5f82015167ffffffffffffffff8111156200020b576200020a6200005b565b5b6200021984828501620001a1565b91505092915050565b5f81519050919050565b7f4e487b71000000000000000000000000000000000000000000000000000000005f52602260045260245ffd5b5f60028204905060018216806200027157607f821691505b6020821081036200028757620002866200022c565b5b50919050565b5f819050815f5260205f209050919050565b5f6020601f8301049050919050565b5f82821b905092915050565b5f60088302620002eb7fffffffffffffffffffffffffffffffffffffffffffffffffffffffffffffffff82620002ae565b620002f78683620002ae565b95508019841693508086168417925050509392505050565b5f819050919050565b5f819050919050565b5f620003416200033b62000335846200030f565b62000318565b6200030f565b9050919050565b5f819050919050565b6200035c8362000321565b620003746200036b8262000348565b848454620002ba565b825550505050565b5f90565b6200038a6200037c565b6200039781848462000351565b505050565b5b81811015620003be57620003b25f8262000380565b6001810190506200039d565b5050565b601f8211156200040d57620003d7816200028d565b620003e2846200029f565b81016020851015620003f2578190505b6200040a62000401856200029f565b8301826200039c565b50505b505050565b5f82821c905092915050565b5f6200042f5f198460080262000412565b1980831691505092915050565b5f6200044983836200041e565b9150826002028217905092915050565b620004648262000222565b67ffffffffffffffff81111562000480576200047f62000077565b5b6200048c825462000259565b62000499828285620003c2565b5f60209050601f831160018114620004cf575f8415620004ba578287015190505b620004c685826200043c565b86555062000535565b601f198416620004df866200028d565b5f5b828110156200050857848901518255600182019150602085019450602081019050620004e1565b8683101562000528578489015162000524601f8916826200041e565b8355505b6001600288020188555050505b505050505050565b610ef6806200054b5f395ff3fe608060405234801561000f575f80fd5b5060043610610055575f3560e01c806347d19db31461005957806388bec9da1461008b5780639237dd5e146100a75780639eab5253146100c3578063cceae561146100e1575b5f80fd5b610073600480360381019061006e919061067a565b6100ff565b604051610082939291906107a2565b60405180910390f35b6100a560048036038101906100a0919061067a565b61024c565b005b6100c160048036038101906100bc9190610934565b6102e9565b005b6100cb61039e565b6040516100d89190610b22565b60405180910390f35b6100e9610553565b6040516100f69190610b42565b60405180910390f35b6001818154811061010e575f80fd5b905f5260205f2090600302015f91509050805f01805461012d90610b8f565b80601f016020809104026020016040519081016040528092919081815260200182805461015990610b8f565b80156101a45780601f1061017b576101008083540402835291602001916101a4565b820191905f5260205f20905b81548152906001019060200180831161018757829003601f168201915b5050505050908060010180546101b990610b8f565b80601f01602080910402602001604051908101604052809291908181526020018280546101e590610b8f565b80156102305780601f1061020757610100808354040283529160200191610230565b820191905f5260205f20905b81548152906001019060200180831161021357829003601f168201915b505050505090806002015f9054906101000a900460ff16905083565b6001805490508110610293576040517f08c379a000000000000000000000000000000000000000000000000000000000815260040161028a90610c09565b60405180910390fd5b600181815481106102a7576102a6610c27565b5b905f5260205f2090600302015f8082015f6102c291906105de565b600182015f6102d191906105de565b600282015f6101000a81549060ff0219169055505050565b600160405180606001604052808581526020018481526020018360028111156103155761031461072f565b5b815250908060018154018082558091505060019003905f5260205f2090600302015f909190919091505f820151815f0190816103519190610df1565b5060208201518160010190816103679190610df1565b506040820151816002015f6101000a81548160ff021916908360028111156103925761039161072f565b5b02179055505050505050565b60606001805480602002602001604051908101604052809291908181526020015f905b8282101561054a578382905f5260205f2090600302016040518060600160405290815f820180546103f190610b8f565b80601f016020809104026020016040519081016040528092919081815260200182805461041d90610b8f565b80156104685780601f1061043f57610100808354040283529160200191610468565b820191905f5260205f20905b81548152906001019060200180831161044b57829003601f168201915b5050505050815260200160018201805461048190610b8f565b80601f01602080910402602001604051908101604052809291908181526020018280546104ad90610b8f565b80156104f85780601f106104cf576101008083540402835291602001916104f8565b820191905f5260205f20905b8154815290600101906020018083116104db57829003601f168201915b50505050508152602001600282015f9054906101000a900460ff1660028111156105255761052461072f565b5b60028111156105375761053661072f565b5b81525050815260200190600101906103c1565b50505050905090565b5f805461055f90610b8f565b80601f016020809104026020016040519081016040528092919081815260200182805461058b90610b8f565b80156105d65780601f106105ad576101008083540402835291602001916105d6565b820191905f5260205f20905b8154815290600101906020018083116105b957829003601f168201915b505050505081565b5080546105ea90610b8f565b5f825580601f106105fb5750610618565b601f0160209004905f5260205f2090810190610617919061061b565b5b50565b5b80821115610632575f815f90555060010161061c565b5090565b5f604051905090565b5f80fd5b5f80fd5b5f819050919050565b61065981610647565b8114610663575f80fd5b50565b5f8135905061067481610650565b92915050565b5f6020828403121561068f5761068e61063f565b5b5f61069c84828501610666565b91505092915050565b5f81519050919050565b5f82825260208201905092915050565b5f5b838110156106dc5780820151818401526020810190506106c1565b5f8484015250505050565b5f601f19601f8301169050919050565b5f610701826106a5565b61070b81856106af565b935061071b8185602086016106bf565b610724816106e7565b840191505092915050565b7f4e487b71000000000000000000000000000000000000000000000000000000005f52602160045260245ffd5b6003811061076d5761076c61072f565b5b50565b5f81905061077d8261075c565b919050565b5f61078c82610770565b9050919050565b61079c81610782565b82525050565b5f6060820190508181035f8301526107ba81866106f7565b905081810360208301526107ce81856106f7565b90506107dd6040830184610793565b949350505050565b5f80fd5b5f80fd5b7f4e487b71000000000000000000000000000000000000000000000000000000005f52604160045260245ffd5b610823826106e7565b810181811067ffffffffffffffff82111715610842576108416107ed565b5b80604052505050565b5f610854610636565b9050610860828261081a565b919050565b5f67ffffffffffffffff82111561087f5761087e6107ed565b5b610888826106e7565b9050602081019050919050565b828183375f83830152505050565b5f6108b56108b084610865565b61084b565b9050828152602081018484840111156108d1576108d06107e9565b5b6108dc848285610895565b509392505050565b5f82601f8301126108f8576108f76107e5565b5b81356109088482602086016108a3565b91505092915050565b6003811061091d575f80fd5b50565b5f8135905061092e81610911565b92915050565b5f805f6060848603121561094b5761094a61063f565b5b5f84013567ffffffffffffffff81111561096857610967610643565b5b610974868287016108e4565b935050602084013567ffffffffffffffff81111561099557610994610643565b5b6109a1868287016108e4565b92505060406109b286828701610920565b9150509250925092565b5f81519050919050565b5f82825260208201905092915050565b5f819050602082019050919050565b5f82825260208201905092915050565b5f6109ff826106a5565b610a0981856109e5565b9350610a198185602086016106bf565b610a22816106e7565b840191505092915050565b610a3681610782565b82525050565b5f606083015f8301518482035f860152610a5682826109f5565b91505060208301518482036020860152610a7082826109f5565b9150506040830151610a856040860182610a2d565b508091505092915050565b5f610a9b8383610a3c565b905092915050565b5f602082019050919050565b5f610ab9826109bc565b610ac381856109c6565b935083602082028501610ad5856109d6565b805f5b85811015610b105784840389528151610af18582610a90565b9450610afc83610aa3565b925060208a01995050600181019050610ad8565b50829750879550505050505092915050565b5f6020820190508181035f830152610b3a8184610aaf565b905092915050565b5f6020820190508181035f830152610b5a81846106f7565b905092915050565b7f4e487b71000000000000000000000000000000000000000000000000000000005f52602260045260245ffd5b5f6002820490506001821680610ba657607f821691505b602082108103610bb957610bb8610b62565b5b50919050565b7f496e646578206f7574206f6620626f756e6473000000000000000000000000005f82015250565b5f610bf36013836106af565b9150610bfe82610bbf565b602082019050919050565b5f6020820190508181035f830152610c2081610be7565b9050919050565b7f4e487b71000000000000000000000000000000000000000000000000000000005f52603260045260245ffd5b5f819050815f5260205f209050919050565b5f6020601f8301049050919050565b5f82821b905092915050565b5f60088302610cb07fffffffffffffffffffffffffffffffffffffffffffffffffffffffffffffffff82610c75565b610cba8683610c75565b95508019841693508086168417925050509392505050565b5f819050919050565b5f610cf5610cf0610ceb84610647565b610cd2565b610647565b9050919050565b5f819050919050565b610d0e83610cdb565b610d22610d1a82610cfc565b848454610c81565b825550505050565b5f90565b610d36610d2a565b610d41818484610d05565b505050565b5b81811015610d6457610d595f82610d2e565b600181019050610d47565b5050565b601f821115610da957610d7a81610c54565b610d8384610c66565b81016020851015610d92578190505b610da6610d9e85610c66565b830182610d46565b50505b505050565b5f82821c905092915050565b5f610dc95f1984600802610dae565b1980831691505092915050565b5f610de18383610dba565b9150826002028217905092915050565b610dfa826106a5565b67ffffffffffffffff811115610e1357610e126107ed565b5b610e1d8254610b8f565b610e28828285610d68565b5f60209050601f831160018114610e59575f8415610e47578287015190505b610e518582610dd6565b865550610eb8565b601f198416610e6786610c54565b5f5b82811015610e8e57848901518255600182019150602085019450602081019050610e69565b86831015610eab5784890151610ea7601f891682610dba565b8355505b6001600288020188555050505b50505050505056fea264697066735822122079246a91e5643c38931e38978973f1e41b1871ed93f6cbc828e33a6df59e76bb64736f6c63430008150033",
  "immutableReferences": {},
  "source": "// SPDX-License-Identifier: MIT\n\npragma solidity ^0.8.21;\n\nenum Role {\n    Parent1,\n    Parent2,\n    Enfant\n}\n\nstruct Personne {\n    string prenom;\n    string date_naissance;\n    Role role;\n}\n\ncontract LivretFamille  {\n    string public nom;\n    Personne[] public membres;\n    \n    constructor(string memory _nom){\n        nom = _nom;\n    }\n\n    function addMember(string memory prenom, string memory date_naissance, Role role) public {\n        membres.push(Personne(prenom, date_naissance, role));\n    }\n\n    function deleteMember(uint index) public {\n        require(index < membres.length, \"Index out of bounds\");\n        delete membres[index];\n    }\n\n    function getMembers() public view returns(Personne[] memory) {\n        return membres;\n    }\n}",
  "sourcePath": "/home/clement/Documents/cours/blockchain/truffle-livret-famille/truffle/contracts/LivretFamille.sol",
  "compiler": {
    "name": "solc",
    "version": "0.8.21+commit.d9974bed.Emscripten.clang"
  },
  "schemaVersion": "3.4.16",
  "updatedAt": "2023-10-09T13:01:52.276Z",
  "networkType": "ethereum",
  "devdoc": {
    "kind": "dev",
    "methods": {},
    "version": 1
  },
  "userdoc": {
    "kind": "user",
    "methods": {},
    "version": 1
  }
}